:020000040000FA
:0400000081EF00F09C
:10000800A30FA30FA30FA30F4000B20E4000A30F2E
:10001800A30FA30FA30FA30FA30FA30FA30FA30F48
:10002800A30F400040004000A30FA30FA30FA30F8E
:10003800A30FA30FA30FA30FA30FA30FA30F440F87
:10004800A30FA30FA30FA30F40004000A30FA30FFC
:10005800A30FA30FA30F4000A30FA30F480EE10B9C
:10006800A30FBB0EA30FA30FA30FA30FA30FA30FE1
:10007800A30FA30FA30FA30F4000A30FA30FA30F5A
:10008800A30FA30FA30FA30FA30FA30FA30FA30FD8
:10009800A30FA30FA30FA30F4000A30F400040001E
:1000A800A30FA30FA30FA30FA30FA30FA30FA30FB8
:1000B800A30FA30FA30FA30FA30FA30FA30FA30FA8
:1000C800A30FA30FA30FA30FA30FA30FA30FA30F98
:1000D800A30FA30FA30FA30FA30FA30FA30FA30F88
:1000E8004000A30FA30FA30F4000400040004000B2
:0E00F800A10FA30FA30F8E0FFF00AAEF1DF0A4
:072500000002C0001F0000F3
:10250800520E3AEC1EF007EC1FF06CEC17F0000EC0
:10251800216E000E206E000E236E000E226E4250B9
:10252800D8B499EF12F09BEF12F0B5EF12F0000E4D
:10253800246E000E256E000E266E000E276EFF0E0E
:102548001A6EFF0E1B6E7F0E1C6E000E1D6E24C5CC
:1025580028F525C529F526C52AF527C52BF5CDEF7C
:1025680012F0000E246E400E256E000E266E000E30
:10257800276EFF0E1A6EFE0E1B6E010E1C6E000EED
:102588001D6E24C52EF525C52FF526C530F527C5A2
:1025980031F50301F38F010E51EC1DF0030E51ECE0
:1025A8001DF0040E51EC1DF0F8EC1EF0D9EC1EF0F5
:1025B80020EC1FF0C396B1EF13F04150D8B4E7EF09
:1025C80012F0E9EF12F0B1EF13F04250D8B4EFEF88
:1025D80012F0F1EF12F029EF13F0C182E8EC1DF0D0
:1025E8000009D8A4FAEF12F0FCEF12F0F2EF12F0A3
:1025F80092EC1EF03DEC1FF00CEC1FF024C503F527
:1026080025C504F526C505F527C506F5BAEC1DF060
:1026180012EC18F03FEC1FF0E8EC1DF00009D8A40C
:1026280018EF13F01AEF13F010EF13F0204A212AD5
:10263800000E2426010E2522000E2622000E272237
:10264800000E416EC192B1EF13F022502310D8A4AE
:1026580030EF13F032EF13F05BEF13F0000E1E6E45
:10266800250E1F6E000E2414166EFF0E2514176E0D
:10267800010E2614186E000E2714196E1650241811
:102688000FE1175025180CE11850261809E11950C8
:102698002718D8B452EF13F054EF13F056EF13F095
:1026A800ECEF13F0C18252EC1EF005EC1EF0235043
:1026B80007E1800E225CD8B064EF13F066EF13F0E8
:1026C800A8EF13F0610078F4D9F461007CF4DAF42F
:1026D800DEC446F0DDC447F0020E1E26000E1F229F
:1026E80052EC1EF0C18624C502F525C503F526C5A2
:1026F80004F527C505F598EC1AF0020E2426000EFD
:10270800252226222722224A232AC196000141AFE8
:1027180090EF13F092EF13F0B1EF13F0419FC1B6B1
:1027280098EF13F09BEF13F0010E9CEF13F0000EDF
:10273800FF0A136E134613461346C1501318F70BBE
:102748001318C16EB1EF13F0204A212A000E236E30
:10275800000E226E000E416EC1924650D8A4B7EF0B
:1027680013F0B9EF13F0C8EF13F01A50245C1B50A4
:1027780025581C5026581D502758D8A0C6EF13F0CE
:10278800C8EF13F0E1EF12F0E6EC1EF038EC1FF0A2
:10279800D9EC1EF0C3860301F39F4250D8B4D7EF9B
:1027A80013F0D9EF13F0DFEF13F020C52CF521C596
:1027B8002DF5E3EF13F020C532F521C533F501EC13
:1027C80017F007EC1FF0000E3F6E780E3AEC1EF083
:1027D80012004250D8B4F3EF13F0F5EF13F089EF7D
:1027E80014F0000E036E100E026E21EC1EF0046E43
:1027F80004C505F5066A076A086A05C508F5076A83
:10280800066A056A05C528F506C529F507C52AF526
:1028180008C52BF5000E036E110E026E21EC1EF09A
:10282800046E04C505F5066A076A086A06C508F550
:1028380005C507F5066A056A0550282606502922A7
:1028480007502A2208502B22000E036E120E026E29
:1028580021EC1EF0046E04C505F5066A076A086ACD
:1028680007C508F506C507F505C506F5056A055047
:1028780028260650292207502A2208502B22000E0B
:10288800036E130E026E21EC1EF0046E045028260F
:10289800000E29222A222B22000E036E140E026E2D
:1028A80021EC1EF02D6E2C6A000E036E150E026EC2
:1028B80021EC1EF0046E04502C26000E2D22282830
:1028C8000AE1292808E12A2806E12B28D8A46FEF75
:1028D80014F071EF14F01BEF15F02C2806E12D28E9
:1028E800D8A479EF14F07BEF14F01BEF15F0000E6D
:1028F800286E000E296E000E2A6E000E2B6E000E3A
:102908002D6E000E2C6E1BEF15F0000E036E000EE0
:10291800026E21EC1EF0046E04C505F5066A076A0E
:10292800086A05C508F5076A066A056A05C52EF529
:1029380006C52FF507C530F508C531F5000E036E3D
:10294800010E026E21EC1EF0046E04C505F5066A40
:10295800076A086A06C508F505C507F5066A056A1F
:1029680005502E2606502F220750302208503122BB
:10297800000E036E020E026E21EC1EF0046E04C5FA
:1029880005F5066A076A086A07C508F506C507F562
:1029980005C506F5056A05502E2606502F22075054
:1029A800302208503122000E036E030E026E21EC15
:1029B8001EF0046E04502E26000E2F2230223122E3
:1029C800000E036E040E026E21EC1EF0336E326AA6
:1029D800000E036E050E026E21EC1EF0046E04500C
:1029E8003226000E33222E280AE12F2808E130284B
:1029F80006E13128D8A403EF15F005EF15F01BEF19
:102A080015F0322806E13328D8A40DEF15F00FEFA2
:102A180015F01BEF15F0000E2E6E400E2F6E000EF7
:102A2800306E000E316E000E336E000E326E1200E4
:102A3800500E3AEC1EF007EC1FF04250D8B427EFC6
:102A480015F029EF15F037EF15F028C50AF529C557
:102A58000BF52AC50CF52BC50DF52CC50EF52DC5A6
:102A68000FF543EF15F02EC50AF52FC50BF530C548
:102A78000CF531C50DF532C50EF533C50FF500015E
:102A88007F8F020E51EC1DF0050E51EC1DF0D9ECB4
:102A98001EF020EC1FF0C3964250D8B456EF15F044
:102AA80058EF15F0B7EF15F0E8EC1DF00009D8A4C1
:102AB80060EF15F062EF15F058EF15F03DEC1FF0E0
:102AC80010EC1FF00AC503F50BC504F50CC505F598
:102AD8000DC506F5BAEC1DF0000186BF76EF15F0BE
:102AE80078EF15F070EF15F086930EC510F50FC549
:102AF80011F510501110D8A484EF15F086EF15F0D9
:102B080088EF15F0AAEF15F0010E0001836F000E93
:102B1800826FB898020EE86FFC8DB8A896EF15F092
:102B280098EF15F091EF15F0B8984650D8B49FEF8C
:102B380015F0A1EF15F0A5EF15F0000E466EAAEFFF
:102B480015F01006D8A011067DEF15F0000186BF1C
:102B5800B0EF15F0B2EF15F0AAEF15F086833FEC51
:102B68001FF0F8EF15F0050E0001E86F610028F47A
:102B7800F9F061002CF4FAF0610030F4FBF00EC5B6
:102B880012F50FC513F512501310D8A4CEEF15F097
:102B9800D0EF15F0D2EF15F0F8EF15F0C186BB981D
:102BA800050E0001E86FFC8D000EF927010EFA23CF
:102BB800000EFB23BBA8E3EF15F0E5EF15F0DEEF01
:102BC80015F0BB98C1964650D8B4EDEF15F0EFEF6D
:102BD80015F0F3EF15F0000E466EF8EF15F012063B
:102BE800D8A01306C7EF15F038EC1FF0D9EC1EF08B
:102BF800C38600017F9F07EC1FF0000E3F6E780E22
:102C08003AEC1EF012004650D8B40DEF16F00FEF54
:102C180016F05FEF16F0000E466E000E456E480E79
:102C2800056EE50E046E46EC1EF04FEF16F04550AB
:102C3800D8B421EF16F023EF16F04FEF16F0000E80
:102C4800456E2CEC1FF0E10E056E7B0E046E46EC13
:102C58001EF041EF16F04650D8B435EF16F037EFB6
:102C680016F041EF16F0000E466E010E3F6E35EC81
:102C78001FF014EC1FF08DEF16F07DEC1EF000092C
:102C8800D8B449EF16F04BEF16F02FEF16F0020EFE
:102C98003F6E3BEF16F07DEC1EF00009D8B457EFFD
:102CA80016F059EF16F01BEF16F0030E3F6E35ECD9
:102CB8001FF08DEF16F04450D8B465EF16F067EFAB
:102CC80016F08DEF16F0000E446E000E436E480E9F
:102CD800056EE50E046E46EC1EF07FEF16F04350CD
:102CE800D8B479EF16F07BEF16F07FEF16F0000EF0
:102CF800436E8DEF16F07DEC1EF00009D8B487EF17
:102D080016F089EF16F073EF16F0040E3F6E5BEFC6
:102D180016F01200000EC26E000EC16E000EBE6EDE
:102D2800080EC36E000EBF6E000EC06E070ECA6E90
:102D3800F60ECB6EFB0EC66ED70EC76E2B0EC86E88
:102D4800900EC96EB00E0401186F160E106F8B0E20
:102D5800086F070E206FF60E286F5F0E006F000ECB
:102D6800196F000E296F000E216F100E096F200ECB
:102D7800016F000E116F000E0201896F000E886F3F
:102D8800000E876F000E866F000E0401226F000E82
:102D98002A6F000E026F200E0A6F000E126F000ECF
:102DA8001A6F03690B6913691B69070E236F2B6977
:102DB80004690C6914691C690F0E246F2C691A0EBA
:102DC80002010E6F320E156F200E136F100E546F26
:102DD800200E296F130E726F100E576F160E6A6F42
:102DE8002F0E1E6F070E616F050E486F310E176F9D
:102DF800150E6B6F0C0E496F12004250D8B407EFD6
:102E080017F009EF17F03BEF17F0000E036E100EE6
:102E1800026E2BC504F56FEC1AF0000E036E110E4E
:102E2800026E2AC504F56FEC1AF0000E036E120E3E
:102E3800026E29C504F56FEC1AF0000E036E130E2E
:102E4800026E28C504F56FEC1AF0000E036E140E1E
:102E5800026E2D50046E6FEC1AF0000E036E150E04
:102E6800026E2CC504F56FEC1AF06BEF17F0000E2C
:102E7800036E000E026E31C504F56FEC1AF0000EF9
:102E8800036E010E026E30C504F56FEC1AF0000EE9
:102E9800036E020E026E2FC504F56FEC1AF0000ED9
:102EA800036E030E026E2EC504F56FEC1AF0000EC9
:102EB800036E040E026E3350046E6FEC1AF0000EAF
:102EC800036E050E026E32C504F56FEC1AF012009F
:102ED800450E3AEC1EF007EC1FF02CEC1FF04250A8
:102EE800D8B479EF17F07BEF17F095EF17F0F0EC07
:102EF8001CF0E8EC1DF00009D8A485EF17F087EF67
:102F080017F07DEF17F0000E286E000E296E000EE8
:102F18002A6E000E2B6E000E2D6E000E2C6EAFEF7B
:102F280017F0000E0B6E400E0C6E000E0D6E000EAC
:102F38000E6E010E106EBF0E0F6E1DEC19F0000E16
:102F48002E6E400E2F6E000E306E000E316E000E8B
:102F5800336E000E326E01EC17F014EC1FF0780E91
:102F68003AEC1EF0030E3F18D8A4BDEF17F0BFEFE0
:102F780017F0C1EF17F0000E3F6E1200B39E77A056
:102F8800C8EF17F0CAEF17F0EBEF17F076A0CFEF06
:102F980017F0D1EF17F0EBEF17F076904E504F1077
:102FA8005010D8B4DAEF17F0DCEF17F011EF18F083
:102FB80002D8E9EF17F00500FA6E4E50FD6E4F503B
:102FC800FE6E5050FF6EFA50120011EF18F077A203
:102FD800F0EF17F0F2EF17F011EF18F076A2F7EF15
:102FE80017F0F9EF17F011EF18F076924B504C10DC
:102FF8004D10D8B402EF18F004EF18F011EF18F0E4
:1030080002D811EF18F00500FA6E4B50FD6E4C50C7
:10301800FE6E4D50FF6EFA5012001100C18600017D
:1030280086BF19EF18F01BEF18F013EF18F0869110
:10303800010E836F000E826FB998030EE86FFC9F34
:103048003E50D8A42AEF18F02CEF18F034EF18F0FF
:10305800000EF96F0B0EFA6F000EFB6F3AEF18F0C7
:10306800000EF96F0C0EFA6F000EFB6FFC8FFC8DD3
:10307800B9A841EF18F043EF18F03CEF18F0B998F1
:10308800000186BF4AEF18F04CEF18F044EF18F033
:1030980086813E50D8A453EF18F055EF18F059EF39
:1030A80018F0010E3E6E5BEF18F0000E3E6EC196F2
:1030B800120052EC19F0D68ED68CE4EC19F03F5081
:1030C800D8A469EF18F06BEF18F06FEF18F007EC61
:1030D80016F063EF18F03F04D8A475EF18F077EFF7
:1030E80018F07BEF18F084EC12F063EF18F0020E82
:1030F8003F18D8A482EF18F084EF18F088EF18F082
:103108001CEC15F063EF18F0030E3F18D8A48FEFEE
:1031180018F091EF18F095EF18F06CEC17F063EFDA
:1031280018F0040E3F18D8A49CEF18F09EEF18F082
:10313800A2EF18F0B4EC19F063EF18F063EF18F091
:1031480081EF00F0000E6F6E020E706E000E716E51
:10315800D40E726E000E736E000E746E000E756ED5
:10316800000E766E000E776E000E796ECA0E7A6EBD
:10317800000E7B6E6A0E7C6E000E7D6EB39CB39E55
:1031880076907692A39EA39C900E026E3E0E036EDE
:10319800000E046EBDEC1EF08E0E026E3E0E036E27
:1031A800000E046EB6EC1EF0920E026E3E0E036E1A
:1031B800000E046EC4EC1EF0800E786E1200000E35
:1031C8000201A56F000EA66F000EA76F000EA86F74
:1031D800000EA96F000EAA6FB00EAB6F800EAC6F19
:1031E800000EAD6F8A0EAE6F000EAF6F000EB06F9F
:1031F800000EB16F000EB26F000EB36F000E026EBC
:10320800000E036E000E046EA1EC1EF0000E026E9E
:10321800000E036E000E046E9AEC1EF0000E026E95
:10322800000E036E000E046EA8EC1EF0000E476E32
:103238001200C00E0F5C010E1058D8A026EF19F02E
:1032480028EF19F02CEF19F0010E106EBF0E0F6E5B
:10325800000E126E000E116E46EF19F00BC502F546
:103268000CC503F50DC504F50EC505F583EC19F07D
:10327800000E0B26010E0C22000E0D22000E0E224F
:10328800114A122A0F50115C10501258D8A04FEF53
:1032980019F051EF19F032EF19F01200A4EC1BF0FD
:1032A8003FEC1DF08EEC16F0F7EC1DF058EC1BF01F
:1032B800C0EC1AF00CEC1BF014EC1AF07EEC1BF0CE
:1032C80007EC1CF0CAEC1DF0D9EC1DF0C6EC1BF0A5
:1032D80076EC1CF023EC1CF073EC1EF032EC1BF0C7
:1032E800E6EC1AF0E0EC1EF05BEC1CF0E3EC18F0F6
:1032F8002EEC1EF0A6EC18F0AFEC1EF01200000E3B
:103308000214076EFF0E0314086E010E0414096EF2
:10331800000E05140A6E000ED6BE010E066E610080
:1033280024F445F0610020F444F000014151F80B09
:103338000609416FD69E550E426FAA0E426F408114
:1033480040B1A9EF19F0ABEF19F0A4EF19F006B0EE
:1033580002D0D69E01D0D68EF80E00014117120079
:10336800540E3AEC1EF007EC1FF00301F38F000136
:103378007F8F000E51EC1DF0FDEC1EF0D9EC1EF015
:1033880020EC1FF0C3964650D8B4CDEF19F0CFEF1C
:1033980019F0C7EF19F0000E466EECEC1EF038EC91
:1033A8001FF0D9EC1EF0C3860301F39F00017F9F35
:1033B80007EC1FF0000E3F6E780E3AEC1EF012007C
:1033C80038EC1FF0D9EC1EF035EC1FF00301F39F29
:1033D80000017F9F2CEC1DF007EC1FF0CE0E026E53
:1033E800370E036E000E046ED2EC1EF0300E026E25
:1033F8003A0E036E000E046ECBEC1EF042EC1AF08F
:10340800426E4250D8B40BEF1AF00DEF1AF00FEFDE
:103418001AF004EC1DF0EDEC13F0000E3F6E1200F4
:10342800000E0301D96F000EDA6F000EDB6F000E7D
:10343800DC6F000EDF6F000EE06F000EE56F000E10
:10344800E76F000EEC6F000EEE6F000EEF6F000ED0
:10345800F06F000EF16F000EF26F000EF46F000EA9
:10346800F56F000EF66F000EF76F000EF86F020E84
:10347800F96F000EFA6F900EF36F12003FEC1FF019
:103488003BEC1FF0010E13EC1EF0090E076E050E43
:10349800086E88EC1DF0BF0E0918D8A456EF1AF074
:1034A80058EF1AF06DEF1AF0260E0A18D8A45FEF3D
:1034B8001AF061EF1AF06DEF1AF0430E0B18D8A44A
:1034C80068EF1AF06AEF1AF06DEF1AF0010E6EEF5E
:1034D8001AF0000E1200000ED6BE010E056E380E50
:1034E8000001456F0350446F610008F443F0610028
:1034F80010F446F04151F80B0309416FD69E550E62
:10350800426FAA0E426F408140B18DEF1AF08FEFE3
:103518001AF088EF1AF005B002D0D69E01D0D68EE8
:10352800F80E000141171200000ED6BE010E066EFD
:10353800610010F445F061000CF444F0610008F4F7
:1035480043F000014151F80B0309416FD69E550E17
:10355800426FAA0E426F408140B1B5EF1AF0B7EF43
:103568001AF0B0EF1AF006B002D0D69E01D0D68E6F
:10357800F80E000141171200050E0001E86F000E59
:10358800F96F400EFA6F000EFB6F000EF16F7D0EA3
:10359800F06F0B0EFD6F010EF86F000EF76F000E47
:1035A800EF6F010EEE6F1F0EFF6F000EFE6FBB9ADE
:1035B800BB98BB9EBB9CAB9AAB98AB9EAB9CC00E1A
:1035C800FC6F1200040E0001E86F000EF96F0B0E7D
:1035D800FA6F000EFB6F250EF16F000EF06F420EB2
:1035E800FD6F020EF86F000EF76F010EEF6F000E01
:1035F800EE6F000EFF6F000EFE6FBA9ABA98BA9E71
:10360800BA9CAA9AAA98AA9EAA9C800EFC6F12003D
:10361800030E0001E86F000EF96F0B0EFA6F000E33
:10362800FB6F000EF16F810EF06F030EFD6F010E40
:10363800F86F000EF76F000EEF6F010EEE6F190EA8
:10364800FF6F000EFE6FB99AB998B99EB99CA99AF6
:10365800A998A99EA99C800EFC6F1200020E000179
:10366800E86F800EF96F000EFA6F000EFB6F000E08
:10367800F16F7D0EF06F010EFD6F010EF86F000EF9
:10368800F76F000EEF6F010EEE6F1F0EFF6F000E4B
:10369800FE6FB89AB898B89EB89CA89AA898A89EA1
:1036A800A89CC00EFC6F1200010E0001E86FEB0E23
:1036B800F96F030EFA6F000EFB6F0B0EF16F000E21
:1036C800F06F400EFD6F000EF86F010EF76F020EDF
:1036D800EF6F000EEE6F0A0EFF6F000EFE6FB49ACA
:1036E800B498B49EB49CA49AA498A49EA49CC00E1A
:1036F800FC6F1200000E0001E86FEB0EF96F030E6D
:10370800FA6F000EFB6F000EF16F7D0EF06F000E6A
:10371800FD6F000EF86F010EF76F000EEF6F010ED0
:10372800EE6F0A0EFF6F000EFE6FB09AB098B09E53
:10373800B09CA09AA098A09EA09CC00EFC6F1200FE
:10374800D68A000ED6BE010E026ED69E550E040114
:10375800596FAA0E596F5991000E5F6F000E5E6F78
:10376800080E5D6F550E596FAA0E596F598102B038
:1037780002D0D69E01D0D68E03016883628B658FF6
:1037880071871200400E03011B6FF90E196FC00EEE
:10379800186F1851600064FC05F5066A05C506F542
:1037A800056A05105C6E06505D6EB19EA18E880E8E
:1037B800026E3E0E036E000E046ED2EC1EF0900EEA
:1037C80003011A6F1200C180010E406E344A352A77
:1037D800000E345C010E3558D8A0F5EF1BF0F7EF5A
:1037E8001BF005EF1CF0000E356E000E346E4150D4
:1037F800D8A401EF1CF003EF1CF005EF1CF0010E3C
:10380800416EC1901200010E0001D56F0A0ED76FEC
:10381800140ED86F000ED96F000EDA6F000EDB6F32
:10382800020EDC6F000EDD6F000EDE6F000EDF6F24
:10383800000ED46F9E0ED66FB492A4821200000EB2
:103848000001D56F0A0ED76F160ED86F000ED96F0C
:10385800000EDA6F000EDB6F020EDC6F000EDD6FFC
:10386800000EDE6F000EDF6F000ED46F9E0ED66F57
:10387800AE9A9E8A12004DEF1CF0000E99EC1DF0D6
:1038880061000CF4D9F4610010F4DAF4DF6E034A35
:10389800042A0506D8A00606052806E10628D8A4A5
:1038A80058EF1CF05AEF1CF041EF1CF01200000E0C
:1038B80003011F6F000E206F060E216F0B0E1D6F88
:1038C800DC0E1C6FB1981C51600074FC02F5036A91
:1038D80002C503F5026A02105A6E03505B6E110EA0
:1038E8001E6F1200060E03013E6F000E3D6F000EA4
:1038F8003F6F9B0E3B6F000E3A6FBD96AD868A0EEA
:10390800026E3E0E036E000E046ECBEC1EF0400EEF
:0639180003013C6F1200E8
:10392000B39C485049104A10D8B499EF1CF09BEF53
:103930001CF0A8EF1CF002D8A8EF1CF00500FA6EEE
:103940004850FD6E4950FE6E4A50FF6EFA5012000C
:103950001100545055105610D8B4B1EF1CF0B3EF0D
:103960001CF0C0EF1CF002D8C0EF1CF00500FA6E8E
:103970005450FD6E5550FE6E5650FF6EFA501200B8
:103980001200515052105310D8B4C9EF1CF0CBEFB5
:103990001CF0D8EF1CF002D8D8EF1CF00500FA6E2E
:1039A0005150FD6E5250FE6E5350FF6EFA50120091
:1039B000120003011EA5DFEF1CF0E1EF1CF0EAEF9F
:1039C0001CF01E9103501D6F610008F41CF31E8152
:1039D000EFEF1CF003501D6F610008F41CF31200A0
:1039E000E8EC1DF00009D8A4F8EF1CF0FAEF1CF089
:1039F000F0EF1CF092EC1EF03DEC1FF0C70E02EC55
:103A00001FF03FEC1FF01200E8EC1DF00009D8A4F5
:103A10000CEF1DF00EEF1DF004EF1DF092EC1EF008
:103A20003DEC1FF0980E02EC1FF03FEC1FF012006F
:103A3000C3B61DEF1DF020EF1DF0010E21EF1DF0AC
:103A4000000EFF0A016E014601460146C3500118EF
:103A5000F70B0118C36E1200050E026E610008F428
:103A6000E8F00001FC9FFC9DFC9BFC8F020602BE5F
:103A70003EEF1DF03CEF1DF02EEF1DF01200000E8A
:103A80000001606F000E616F000E636F000E646FC7
:103A9000000E656F000E666F000E676F000E686F98
:103AA0001200026E050E026458EF1DF05AEF1DF071
:103AB0005CEF1DF062EF1DF0610008F4E8F000011A
:063AC000FC9FFC8F1200C8
:103AC800AE9A5DEC1EF00009D8B46DEF1DF06FEFF3
:103AD8001DF073EF1DF0010E466E75EF1DF0010E1F
:103AE800456E1100B49268EC1EF00009D8B47FEF5F
:103AF8001DF081EF1DF085EF1DF0010E446E87EF7C
:103B08001DF0010E436E11003DEC1FF018EC1FF084
:103B180007C503F508C504F5000E066E030E056E0D
:103B28003FEC1CF03FEC1FF01200026E010E00018A
:103B3800826F610008F481F0B1A0A5EF1DF0A7EF36
:103B48001DF0A0EF1DF000018051120001EE28F1D8
:103B5800200EEE6AE806FDE10401080E5D6F000E16
:103B68005E6F000E5F6F00015DEF18F005C507F589
:103B780004C508F503C509F5075099EC1DF0085070
:103B880099EC1DF0095099EC1DF01200060E030186
:103B9800326F130E316F000E336FE90E2F6F000E68
:103BA8002E6FB996A00E306F1200060E0301266F15
:103BB800130E256F000E276FE90E236F000E226F7C
:103BC800B196A00E246F12003DEC1FF0050E02EC1A
:103BD8001FF0000EF2EC1EF0046E3FEC1FF0800E9A
:103BE800041604501200600E0001AD6F000EAF6F96
:103BF800000EB36F080EB16F000EB06F000EAC6F01
:103C08001200C186040E0001E86FFC8BFCBB0FEFAD
:103C18001EF011EF1EF00AEF1EF0C1961200026EA0
:103C28000250D8B41AEF1EF01CEF1EF01FEF1EF062
:103C3800C08E20EF1EF0C09E1200380E0001456FA6
:103C48000350446F610008F443F0F80E41174081B7
:103C580046511200C00E0001856F030E866F1F0EBD
:103C6800896F000E8C6F820E846F1200026EB2A2F2
:103C780040EF1EF042EF1EF03BEF1EF0610008F42B
:103C8800A3F21200B19835EC1FF004C502F505C582
:103C980003F5D9EC1CF023EC1FF012004050D8B407
:103CA80058EF1EF05AEF1EF052EF1EF0000E406E55
:103CB80012000001D4B163EF1EF066EF1EF0010E92
:103CC80067EF1EF0000E12000001D4B36EEF1EF075
:103CD80071EF1EF0010E72EF1EF0000E1200800E42
:103CE8000001706F000E716F030E726F050E736F17
:103CF8001200B1B882EF1EF085EF1EF0010E86EFBC
:063D08001EF0000E120087
:103D1000B19E5D500301196F610070F518F3A9ECB5
:103D20001CF011003DEC1FF0060E02EC1FF03FEC02
:103D30001FF0120002C563F503C564F504C565F5FF
:103D4000120002C557F503C558F504C559F5120010
:103D500002C560F503C561F504C562F51200550E94
:103D60000001B46FAA0EB46FB481120002C54BF506
:103D700003C54CF504C54DF5120002C54EF503C54B
:103D80004FF504C550F5120002C548F503C549F5C5
:103D900004C54AF5120002C551F503C552F504C524
:103DA00053F5120002C554F503C555F504C556F583
:103DB00012005D500301196F610070F518F31200D5
:103DC000A00E00017F6F330E7D6F1200010E000107
:103DD000E86FFC9DFC9B1200000E0001E86FFC9D4B
:103DE000FC9B1200000E99EC1DF0036E03501200B4
:103DF000010E0001E86FFC8D1200000E0001E86F5B
:103E0000FC8D1200036E035099EC1DF01200000EA1
:103E1000466E000E456E1200020E02EC1FF01200FC
:103E2000030E02EC1FF0120026EC1FF0C3861200F6
:103E30009F0E02EC1FF01200BD96C1EC1CF01100A9
:103E400003011A8F120003011E81120029EC1FF0DA
:103E5000120003013C9F12002FEC1FF0120032EC05
:103E60001FF0120003013C8F120003011E9112008B
:103E700003011A9F1200BF861200C19C1200C18C60
:023E800012002E
:103E8400BD90110012001200110012001200120065
:020000040020DA
:10000000FF0FFF0FFF0FFF0FFF0FFF0FFF0FFF0F80
:10001000FF0FFF0FFF0FFF0FFF0FFF0FFF0FFF0F70
:020000040030CA
:0A0000008CFFFFFF9FFFFFFFFFFFD3
:00000001FF
